{
  "contractName": "CampaignNFT",
  "abi": [
    {
      "inputs": [
        {
          "internalType": "string",
          "name": "name_",
          "type": "string"
        },
        {
          "internalType": "string",
          "name": "symbol_",
          "type": "string"
        }
      ],
      "stateMutability": "nonpayable",
      "type": "constructor"
    },
    {
      "anonymous": false,
      "inputs": [
        {
          "indexed": true,
          "internalType": "address",
          "name": "owner",
          "type": "address"
        },
        {
          "indexed": true,
          "internalType": "address",
          "name": "approved",
          "type": "address"
        },
        {
          "indexed": true,
          "internalType": "uint256",
          "name": "tokenId",
          "type": "uint256"
        }
      ],
      "name": "Approval",
      "type": "event"
    },
    {
      "anonymous": false,
      "inputs": [
        {
          "indexed": true,
          "internalType": "address",
          "name": "owner",
          "type": "address"
        },
        {
          "indexed": true,
          "internalType": "address",
          "name": "operator",
          "type": "address"
        },
        {
          "indexed": false,
          "internalType": "bool",
          "name": "approved",
          "type": "bool"
        }
      ],
      "name": "ApprovalForAll",
      "type": "event"
    },
    {
      "anonymous": false,
      "inputs": [
        {
          "indexed": true,
          "internalType": "address",
          "name": "previousOwner",
          "type": "address"
        },
        {
          "indexed": true,
          "internalType": "address",
          "name": "newOwner",
          "type": "address"
        }
      ],
      "name": "OwnershipTransferred",
      "type": "event"
    },
    {
      "anonymous": false,
      "inputs": [
        {
          "indexed": true,
          "internalType": "bytes32",
          "name": "role",
          "type": "bytes32"
        },
        {
          "indexed": true,
          "internalType": "bytes32",
          "name": "previousAdminRole",
          "type": "bytes32"
        },
        {
          "indexed": true,
          "internalType": "bytes32",
          "name": "newAdminRole",
          "type": "bytes32"
        }
      ],
      "name": "RoleAdminChanged",
      "type": "event"
    },
    {
      "anonymous": false,
      "inputs": [
        {
          "indexed": true,
          "internalType": "bytes32",
          "name": "role",
          "type": "bytes32"
        },
        {
          "indexed": true,
          "internalType": "address",
          "name": "account",
          "type": "address"
        },
        {
          "indexed": true,
          "internalType": "address",
          "name": "sender",
          "type": "address"
        }
      ],
      "name": "RoleGranted",
      "type": "event"
    },
    {
      "anonymous": false,
      "inputs": [
        {
          "indexed": true,
          "internalType": "bytes32",
          "name": "role",
          "type": "bytes32"
        },
        {
          "indexed": true,
          "internalType": "address",
          "name": "account",
          "type": "address"
        },
        {
          "indexed": true,
          "internalType": "address",
          "name": "sender",
          "type": "address"
        }
      ],
      "name": "RoleRevoked",
      "type": "event"
    },
    {
      "anonymous": false,
      "inputs": [
        {
          "indexed": true,
          "internalType": "address",
          "name": "from",
          "type": "address"
        },
        {
          "indexed": true,
          "internalType": "address",
          "name": "to",
          "type": "address"
        },
        {
          "indexed": true,
          "internalType": "uint256",
          "name": "tokenId",
          "type": "uint256"
        }
      ],
      "name": "Transfer",
      "type": "event"
    },
    {
      "anonymous": false,
      "inputs": [
        {
          "indexed": false,
          "internalType": "address",
          "name": "user_address_",
          "type": "address"
        },
        {
          "indexed": false,
          "internalType": "uint256",
          "name": "tokenId_",
          "type": "uint256"
        }
      ],
      "name": "nft_minted",
      "type": "event"
    },
    {
      "inputs": [],
      "name": "DEFAULT_ADMIN_ROLE",
      "outputs": [
        {
          "internalType": "bytes32",
          "name": "",
          "type": "bytes32"
        }
      ],
      "stateMutability": "view",
      "type": "function",
      "constant": true
    },
    {
      "inputs": [],
      "name": "MINTER_ROLE",
      "outputs": [
        {
          "internalType": "bytes32",
          "name": "",
          "type": "bytes32"
        }
      ],
      "stateMutability": "view",
      "type": "function",
      "constant": true
    },
    {
      "inputs": [
        {
          "internalType": "address",
          "name": "to",
          "type": "address"
        },
        {
          "internalType": "uint256",
          "name": "tokenId",
          "type": "uint256"
        }
      ],
      "name": "approve",
      "outputs": [],
      "stateMutability": "nonpayable",
      "type": "function"
    },
    {
      "inputs": [
        {
          "internalType": "address",
          "name": "owner",
          "type": "address"
        }
      ],
      "name": "balanceOf",
      "outputs": [
        {
          "internalType": "uint256",
          "name": "",
          "type": "uint256"
        }
      ],
      "stateMutability": "view",
      "type": "function",
      "constant": true
    },
    {
      "inputs": [
        {
          "internalType": "uint256",
          "name": "tokenId",
          "type": "uint256"
        }
      ],
      "name": "getApproved",
      "outputs": [
        {
          "internalType": "address",
          "name": "",
          "type": "address"
        }
      ],
      "stateMutability": "view",
      "type": "function",
      "constant": true
    },
    {
      "inputs": [
        {
          "internalType": "bytes32",
          "name": "role",
          "type": "bytes32"
        }
      ],
      "name": "getRoleAdmin",
      "outputs": [
        {
          "internalType": "bytes32",
          "name": "",
          "type": "bytes32"
        }
      ],
      "stateMutability": "view",
      "type": "function",
      "constant": true
    },
    {
      "inputs": [
        {
          "internalType": "bytes32",
          "name": "role",
          "type": "bytes32"
        },
        {
          "internalType": "address",
          "name": "account",
          "type": "address"
        }
      ],
      "name": "grantRole",
      "outputs": [],
      "stateMutability": "nonpayable",
      "type": "function"
    },
    {
      "inputs": [
        {
          "internalType": "bytes32",
          "name": "role",
          "type": "bytes32"
        },
        {
          "internalType": "address",
          "name": "account",
          "type": "address"
        }
      ],
      "name": "hasRole",
      "outputs": [
        {
          "internalType": "bool",
          "name": "",
          "type": "bool"
        }
      ],
      "stateMutability": "view",
      "type": "function",
      "constant": true
    },
    {
      "inputs": [
        {
          "internalType": "address",
          "name": "owner",
          "type": "address"
        },
        {
          "internalType": "address",
          "name": "operator",
          "type": "address"
        }
      ],
      "name": "isApprovedForAll",
      "outputs": [
        {
          "internalType": "bool",
          "name": "",
          "type": "bool"
        }
      ],
      "stateMutability": "view",
      "type": "function",
      "constant": true
    },
    {
      "inputs": [],
      "name": "name",
      "outputs": [
        {
          "internalType": "string",
          "name": "",
          "type": "string"
        }
      ],
      "stateMutability": "view",
      "type": "function",
      "constant": true
    },
    {
      "inputs": [],
      "name": "owner",
      "outputs": [
        {
          "internalType": "address",
          "name": "",
          "type": "address"
        }
      ],
      "stateMutability": "view",
      "type": "function",
      "constant": true
    },
    {
      "inputs": [
        {
          "internalType": "uint256",
          "name": "tokenId",
          "type": "uint256"
        }
      ],
      "name": "ownerOf",
      "outputs": [
        {
          "internalType": "address",
          "name": "",
          "type": "address"
        }
      ],
      "stateMutability": "view",
      "type": "function",
      "constant": true
    },
    {
      "inputs": [],
      "name": "renounceOwnership",
      "outputs": [],
      "stateMutability": "nonpayable",
      "type": "function"
    },
    {
      "inputs": [
        {
          "internalType": "bytes32",
          "name": "role",
          "type": "bytes32"
        },
        {
          "internalType": "address",
          "name": "account",
          "type": "address"
        }
      ],
      "name": "renounceRole",
      "outputs": [],
      "stateMutability": "nonpayable",
      "type": "function"
    },
    {
      "inputs": [
        {
          "internalType": "bytes32",
          "name": "role",
          "type": "bytes32"
        },
        {
          "internalType": "address",
          "name": "account",
          "type": "address"
        }
      ],
      "name": "revokeRole",
      "outputs": [],
      "stateMutability": "nonpayable",
      "type": "function"
    },
    {
      "inputs": [
        {
          "internalType": "address",
          "name": "from",
          "type": "address"
        },
        {
          "internalType": "address",
          "name": "to",
          "type": "address"
        },
        {
          "internalType": "uint256",
          "name": "tokenId",
          "type": "uint256"
        }
      ],
      "name": "safeTransferFrom",
      "outputs": [],
      "stateMutability": "nonpayable",
      "type": "function"
    },
    {
      "inputs": [
        {
          "internalType": "address",
          "name": "from",
          "type": "address"
        },
        {
          "internalType": "address",
          "name": "to",
          "type": "address"
        },
        {
          "internalType": "uint256",
          "name": "tokenId",
          "type": "uint256"
        },
        {
          "internalType": "bytes",
          "name": "data",
          "type": "bytes"
        }
      ],
      "name": "safeTransferFrom",
      "outputs": [],
      "stateMutability": "nonpayable",
      "type": "function"
    },
    {
      "inputs": [
        {
          "internalType": "address",
          "name": "operator",
          "type": "address"
        },
        {
          "internalType": "bool",
          "name": "approved",
          "type": "bool"
        }
      ],
      "name": "setApprovalForAll",
      "outputs": [],
      "stateMutability": "nonpayable",
      "type": "function"
    },
    {
      "inputs": [],
      "name": "symbol",
      "outputs": [
        {
          "internalType": "string",
          "name": "",
          "type": "string"
        }
      ],
      "stateMutability": "view",
      "type": "function",
      "constant": true
    },
    {
      "inputs": [
        {
          "internalType": "uint256",
          "name": "tokenId_",
          "type": "uint256"
        }
      ],
      "name": "tokenURI",
      "outputs": [
        {
          "internalType": "string",
          "name": "",
          "type": "string"
        }
      ],
      "stateMutability": "view",
      "type": "function",
      "constant": true
    },
    {
      "inputs": [
        {
          "internalType": "address",
          "name": "from",
          "type": "address"
        },
        {
          "internalType": "address",
          "name": "to",
          "type": "address"
        },
        {
          "internalType": "uint256",
          "name": "tokenId",
          "type": "uint256"
        }
      ],
      "name": "transferFrom",
      "outputs": [],
      "stateMutability": "nonpayable",
      "type": "function"
    },
    {
      "inputs": [
        {
          "internalType": "address",
          "name": "newOwner",
          "type": "address"
        }
      ],
      "name": "transferOwnership",
      "outputs": [],
      "stateMutability": "nonpayable",
      "type": "function"
    },
    {
      "inputs": [
        {
          "internalType": "bytes4",
          "name": "interfaceId",
          "type": "bytes4"
        }
      ],
      "name": "supportsInterface",
      "outputs": [
        {
          "internalType": "bool",
          "name": "",
          "type": "bool"
        }
      ],
      "stateMutability": "view",
      "type": "function",
      "constant": true
    },
    {
      "inputs": [
        {
          "internalType": "address[]",
          "name": "winners_",
          "type": "address[]"
        },
        {
          "internalType": "string[]",
          "name": "tokenURIs_",
          "type": "string[]"
        }
      ],
      "name": "mint_batch_nft",
      "outputs": [
        {
          "internalType": "bool",
          "name": "",
          "type": "bool"
        }
      ],
      "stateMutability": "nonpayable",
      "type": "function"
    }
  ],
  "bytecode": "0x608060405261012c600a556003600b553480156200001c57600080fd5b50604051620040ce380380620040ce83398181016040528101906200004291906200058d565b81818181620000666200005a6200010160201b60201c565b6200010960201b60201c565b81600190805190602001906200007e92919062000340565b5080600290805190602001906200009792919062000340565b5050505050620000b16000801b33620001cd60201b60201c565b620000e37f9f2df0fed2c77648de5860a4cc508cd0818c85b8b8a1ab4ceeef8d981c8956a633620001cd60201b60201c565b600a5442620000f391906200064b565b600c819055505050620006ea565b600033905090565b60008060009054906101000a900473ffffffffffffffffffffffffffffffffffffffff169050816000806101000a81548173ffffffffffffffffffffffffffffffffffffffff021916908373ffffffffffffffffffffffffffffffffffffffff1602179055508173ffffffffffffffffffffffffffffffffffffffff168173ffffffffffffffffffffffffffffffffffffffff167f8be0079c531659141344cd1fd0a4f28419497f9722a3daafe3b4186f6b6457e060405160405180910390a35050565b620001df8282620001e360201b60201c565b5050565b620001f58282620002d560201b60201c565b620002d15760016008600084815260200190815260200160002060000160008373ffffffffffffffffffffffffffffffffffffffff1673ffffffffffffffffffffffffffffffffffffffff16815260200190815260200160002060006101000a81548160ff021916908315150217905550620002766200010160201b60201c565b73ffffffffffffffffffffffffffffffffffffffff168173ffffffffffffffffffffffffffffffffffffffff16837f2f8788117e7eff1d82e926ec794901d17c78024a50270940304540a733656f0d60405160405180910390a45b5050565b60006008600084815260200190815260200160002060000160008373ffffffffffffffffffffffffffffffffffffffff1673ffffffffffffffffffffffffffffffffffffffff16815260200190815260200160002060009054906101000a900460ff16905092915050565b8280546200034e90620006b5565b90600052602060002090601f016020900481019282620003725760008555620003be565b82601f106200038d57805160ff1916838001178555620003be565b82800160010185558215620003be579182015b82811115620003bd578251825591602001919060010190620003a0565b5b509050620003cd9190620003d1565b5090565b5b80821115620003ec576000816000905550600101620003d2565b5090565b6000604051905090565b600080fd5b600080fd5b600080fd5b600080fd5b6000601f19601f8301169050919050565b7f4e487b7100000000000000000000000000000000000000000000000000000000600052604160045260246000fd5b62000459826200040e565b810181811067ffffffffffffffff821117156200047b576200047a6200041f565b5b80604052505050565b600062000490620003f0565b90506200049e82826200044e565b919050565b600067ffffffffffffffff821115620004c157620004c06200041f565b5b620004cc826200040e565b9050602081019050919050565b60005b83811015620004f9578082015181840152602081019050620004dc565b8381111562000509576000848401525b50505050565b6000620005266200052084620004a3565b62000484565b90508281526020810184848401111562000545576200054462000409565b5b62000552848285620004d9565b509392505050565b600082601f83011262000572576200057162000404565b5b8151620005848482602086016200050f565b91505092915050565b60008060408385031215620005a757620005a6620003fa565b5b600083015167ffffffffffffffff811115620005c857620005c7620003ff565b5b620005d6858286016200055a565b925050602083015167ffffffffffffffff811115620005fa57620005f9620003ff565b5b62000608858286016200055a565b9150509250929050565b6000819050919050565b7f4e487b7100000000000000000000000000000000000000000000000000000000600052601160045260246000fd5b6000620006588262000612565b9150620006658362000612565b9250828210156200067b576200067a6200061c565b5b828203905092915050565b7f4e487b7100000000000000000000000000000000000000000000000000000000600052602260045260246000fd5b60006002820490506001821680620006ce57607f821691505b602082108103620006e457620006e362000686565b5b50919050565b6139d480620006fa6000396000f3fe608060405234801561001057600080fd5b50600436106101585760003560e01c8063715018a6116100c3578063b88d4fde1161007c578063b88d4fde146103d7578063c87b56dd146103f3578063d539139314610423578063d547741f14610441578063e985e9c51461045d578063f2fde38b1461048d57610158565b8063715018a6146103275780638da5cb5b1461033157806391d148541461034f57806395d89b411461037f578063a217fddf1461039d578063a22cb465146103bb57610158565b80632f2ff15d116101155780632f2ff15d146102435780633069382f1461025f57806336568abe1461028f57806342842e0e146102ab5780636352211e146102c757806370a08231146102f757610158565b806301ffc9a71461015d57806306fdde031461018d578063081812fc146101ab578063095ea7b3146101db57806323b872dd146101f7578063248a9ca314610213575b600080fd5b6101776004803603810190610172919061239d565b6104a9565b60405161018491906123e5565b60405180910390f35b6101956104cb565b6040516101a29190612499565b60405180910390f35b6101c560048036038101906101c091906124f1565b61055d565b6040516101d2919061255f565b60405180910390f35b6101f560048036038101906101f091906125a6565b6105a3565b005b610211600480360381019061020c91906125e6565b6106ba565b005b61022d6004803603810190610228919061266f565b61071a565b60405161023a91906126ab565b60405180910390f35b61025d600480360381019061025891906126c6565b61073a565b005b610279600480360381019061027491906129e4565b61075b565b60405161028691906123e5565b60405180910390f35b6102a960048036038101906102a491906126c6565b610987565b005b6102c560048036038101906102c091906125e6565b610a0a565b005b6102e160048036038101906102dc91906124f1565b610a2a565b6040516102ee919061255f565b60405180910390f35b610311600480360381019061030c9190612a5c565b610ab0565b60405161031e9190612a98565b60405180910390f35b61032f610b67565b005b610339610b7b565b604051610346919061255f565b60405180910390f35b610369600480360381019061036491906126c6565b610ba4565b60405161037691906123e5565b60405180910390f35b610387610c0f565b6040516103949190612499565b60405180910390f35b6103a5610ca1565b6040516103b291906126ab565b60405180910390f35b6103d560048036038101906103d09190612adf565b610ca8565b005b6103f160048036038101906103ec9190612bc0565b610cbe565b005b61040d600480360381019061040891906124f1565b610d20565b60405161041a9190612499565b60405180910390f35b61042b610dd7565b60405161043891906126ab565b60405180910390f35b61045b600480360381019061045691906126c6565b610dfb565b005b61047760048036038101906104729190612c43565b610e1c565b60405161048491906123e5565b60405180910390f35b6104a760048036038101906104a29190612a5c565b610eb0565b005b60006104b482610f33565b806104c457506104c382611015565b5b9050919050565b6060600180546104da90612cb2565b80601f016020809104026020016040519081016040528092919081815260200182805461050690612cb2565b80156105535780601f1061052857610100808354040283529160200191610553565b820191906000526020600020905b81548152906001019060200180831161053657829003601f168201915b5050505050905090565b60006105688261108f565b6005600083815260200190815260200160002060009054906101000a900473ffffffffffffffffffffffffffffffffffffffff169050919050565b60006105ae82610a2a565b90508073ffffffffffffffffffffffffffffffffffffffff168373ffffffffffffffffffffffffffffffffffffffff160361061e576040517f08c379a000000000000000000000000000000000000000000000000000000000815260040161061590612d55565b60405180910390fd5b8073ffffffffffffffffffffffffffffffffffffffff1661063d6110da565b73ffffffffffffffffffffffffffffffffffffffff16148061066c575061066b816106666110da565b610e1c565b5b6106ab576040517f08c379a00000000000000000000000000000000000000000000000000000000081526004016106a290612de7565b60405180910390fd5b6106b583836110e2565b505050565b6106cb6106c56110da565b8261119b565b61070a576040517f08c379a000000000000000000000000000000000000000000000000000000000815260040161070190612e79565b60405180910390fd5b610715838383611230565b505050565b600060086000838152602001908152602001600020600101549050919050565b6107438261071a565b61074c81611529565b610756838361153d565b505050565b60006107877f9f2df0fed2c77648de5860a4cc508cd0818c85b8b8a1ab4ceeef8d981c8956a633610ba4565b6107c6576040517f08c379a00000000000000000000000000000000000000000000000000000000081526004016107bd90612ee5565b60405180910390fd5b815183511461080a576040517f08c379a000000000000000000000000000000000000000000000000000000000815260040161080190612f51565b60405180910390fd5b600b5483511461084f576040517f08c379a000000000000000000000000000000000000000000000000000000000815260040161084690612f51565b60405180910390fd5b600a54600c54426108609190612fa0565b10156108a1576040517f08c379a000000000000000000000000000000000000000000000000000000000815260040161089890613020565b60405180910390fd5b60005b600b548110156109755760006108ba600961161e565b90506108e08583815181106108d2576108d1613040565b5b60200260200101518261162c565b610904818584815181106108f7576108f6613040565b5b602002602001015161164a565b61090e6009611688565b7f097f2a62668cfbff3f8374d304f099b289b51fcd9711ef8b861494d7f5f8f14f85838151811061094257610941613040565b5b60200260200101518260405161095992919061306f565b60405180910390a150808061096d90613098565b9150506108a4565b5042600c819055506001905092915050565b61098f6110da565b73ffffffffffffffffffffffffffffffffffffffff168173ffffffffffffffffffffffffffffffffffffffff16146109fc576040517f08c379a00000000000000000000000000000000000000000000000000000000081526004016109f390613152565b60405180910390fd5b610a06828261169e565b5050565b610a2583838360405180602001604052806000815250610cbe565b505050565b600080610a3683611780565b9050600073ffffffffffffffffffffffffffffffffffffffff168173ffffffffffffffffffffffffffffffffffffffff1603610aa7576040517f08c379a0000000000000000000000000000000000000000000000000000000008152600401610a9e906131be565b60405180910390fd5b80915050919050565b60008073ffffffffffffffffffffffffffffffffffffffff168273ffffffffffffffffffffffffffffffffffffffff1603610b20576040517f08c379a0000000000000000000000000000000000000000000000000000000008152600401610b1790613250565b60405180910390fd5b600460008373ffffffffffffffffffffffffffffffffffffffff1673ffffffffffffffffffffffffffffffffffffffff168152602001908152602001600020549050919050565b610b6f6117bd565b610b79600061183b565b565b60008060009054906101000a900473ffffffffffffffffffffffffffffffffffffffff16905090565b60006008600084815260200190815260200160002060000160008373ffffffffffffffffffffffffffffffffffffffff1673ffffffffffffffffffffffffffffffffffffffff16815260200190815260200160002060009054906101000a900460ff16905092915050565b606060028054610c1e90612cb2565b80601f0160208091040260200160405190810160405280929190818152602001828054610c4a90612cb2565b8015610c975780601f10610c6c57610100808354040283529160200191610c97565b820191906000526020600020905b815481529060010190602001808311610c7a57829003601f168201915b5050505050905090565b6000801b81565b610cba610cb36110da565b83836118ff565b5050565b610ccf610cc96110da565b8361119b565b610d0e576040517f08c379a0000000000000000000000000000000000000000000000000000000008152600401610d0590612e79565b60405180910390fd5b610d1a84848484611a6b565b50505050565b6060610d2b82611ac7565b610d3457600080fd5b600760008381526020019081526020016000208054610d5290612cb2565b80601f0160208091040260200160405190810160405280929190818152602001828054610d7e90612cb2565b8015610dcb5780601f10610da057610100808354040283529160200191610dcb565b820191906000526020600020905b815481529060010190602001808311610dae57829003601f168201915b50505050509050919050565b7f9f2df0fed2c77648de5860a4cc508cd0818c85b8b8a1ab4ceeef8d981c8956a681565b610e048261071a565b610e0d81611529565b610e17838361169e565b505050565b6000600660008473ffffffffffffffffffffffffffffffffffffffff1673ffffffffffffffffffffffffffffffffffffffff16815260200190815260200160002060008373ffffffffffffffffffffffffffffffffffffffff1673ffffffffffffffffffffffffffffffffffffffff16815260200190815260200160002060009054906101000a900460ff16905092915050565b610eb86117bd565b600073ffffffffffffffffffffffffffffffffffffffff168173ffffffffffffffffffffffffffffffffffffffff1603610f27576040517f08c379a0000000000000000000000000000000000000000000000000000000008152600401610f1e906132e2565b60405180910390fd5b610f308161183b565b50565b60007f80ac58cd000000000000000000000000000000000000000000000000000000007bffffffffffffffffffffffffffffffffffffffffffffffffffffffff1916827bffffffffffffffffffffffffffffffffffffffffffffffffffffffff19161480610ffe57507f5b5e139f000000000000000000000000000000000000000000000000000000007bffffffffffffffffffffffffffffffffffffffffffffffffffffffff1916827bffffffffffffffffffffffffffffffffffffffffffffffffffffffff1916145b8061100e575061100d82611b08565b5b9050919050565b60007f7965db0b000000000000000000000000000000000000000000000000000000007bffffffffffffffffffffffffffffffffffffffffffffffffffffffff1916827bffffffffffffffffffffffffffffffffffffffffffffffffffffffff19161480611088575061108782610f33565b5b9050919050565b61109881611ac7565b6110d7576040517f08c379a00000000000000000000000000000000000000000000000000000000081526004016110ce906131be565b60405180910390fd5b50565b600033905090565b816005600083815260200190815260200160002060006101000a81548173ffffffffffffffffffffffffffffffffffffffff021916908373ffffffffffffffffffffffffffffffffffffffff160217905550808273ffffffffffffffffffffffffffffffffffffffff1661115583610a2a565b73ffffffffffffffffffffffffffffffffffffffff167f8c5be1e5ebec7d5bd14f71427d1e84f3dd0314c0f7b2291e5b200ac8c7c3b92560405160405180910390a45050565b6000806111a783610a2a565b90508073ffffffffffffffffffffffffffffffffffffffff168473ffffffffffffffffffffffffffffffffffffffff1614806111e957506111e88185610e1c565b5b8061122757508373ffffffffffffffffffffffffffffffffffffffff1661120f8461055d565b73ffffffffffffffffffffffffffffffffffffffff16145b91505092915050565b8273ffffffffffffffffffffffffffffffffffffffff1661125082610a2a565b73ffffffffffffffffffffffffffffffffffffffff16146112a6576040517f08c379a000000000000000000000000000000000000000000000000000000000815260040161129d90613374565b60405180910390fd5b600073ffffffffffffffffffffffffffffffffffffffff168273ffffffffffffffffffffffffffffffffffffffff1603611315576040517f08c379a000000000000000000000000000000000000000000000000000000000815260040161130c90613406565b60405180910390fd5b6113228383836001611b72565b8273ffffffffffffffffffffffffffffffffffffffff1661134282610a2a565b73ffffffffffffffffffffffffffffffffffffffff1614611398576040517f08c379a000000000000000000000000000000000000000000000000000000000815260040161138f90613374565b60405180910390fd5b6005600082815260200190815260200160002060006101000a81549073ffffffffffffffffffffffffffffffffffffffff02191690556001600460008573ffffffffffffffffffffffffffffffffffffffff1673ffffffffffffffffffffffffffffffffffffffff168152602001908152602001600020600082825403925050819055506001600460008473ffffffffffffffffffffffffffffffffffffffff1673ffffffffffffffffffffffffffffffffffffffff16815260200190815260200160002060008282540192505081905550816003600083815260200190815260200160002060006101000a81548173ffffffffffffffffffffffffffffffffffffffff021916908373ffffffffffffffffffffffffffffffffffffffff160217905550808273ffffffffffffffffffffffffffffffffffffffff168473ffffffffffffffffffffffffffffffffffffffff167fddf252ad1be2c89b69c2b068fc378daa952ba7f163c4a11628f55a4df523b3ef60405160405180910390a46115248383836001611b78565b505050565b61153a816115356110da565b611b7e565b50565b6115478282610ba4565b61161a5760016008600084815260200190815260200160002060000160008373ffffffffffffffffffffffffffffffffffffffff1673ffffffffffffffffffffffffffffffffffffffff16815260200190815260200160002060006101000a81548160ff0219169083151502179055506115bf6110da565b73ffffffffffffffffffffffffffffffffffffffff168173ffffffffffffffffffffffffffffffffffffffff16837f2f8788117e7eff1d82e926ec794901d17c78024a50270940304540a733656f0d60405160405180910390a45b5050565b600081600001549050919050565b611646828260405180602001604052806000815250611c03565b5050565b61165382611ac7565b61165c57600080fd5b8060076000848152602001908152602001600020908051906020019061168392919061228e565b505050565b6001816000016000828254019250508190555050565b6116a88282610ba4565b1561177c5760006008600084815260200190815260200160002060000160008373ffffffffffffffffffffffffffffffffffffffff1673ffffffffffffffffffffffffffffffffffffffff16815260200190815260200160002060006101000a81548160ff0219169083151502179055506117216110da565b73ffffffffffffffffffffffffffffffffffffffff168173ffffffffffffffffffffffffffffffffffffffff16837ff6391f5c32d9c69d2a47ea670b442974b53935d1edc7fd64eb21e047a839171b60405160405180910390a45b5050565b60006003600083815260200190815260200160002060009054906101000a900473ffffffffffffffffffffffffffffffffffffffff169050919050565b6117c56110da565b73ffffffffffffffffffffffffffffffffffffffff166117e3610b7b565b73ffffffffffffffffffffffffffffffffffffffff1614611839576040517f08c379a000000000000000000000000000000000000000000000000000000000815260040161183090613472565b60405180910390fd5b565b60008060009054906101000a900473ffffffffffffffffffffffffffffffffffffffff169050816000806101000a81548173ffffffffffffffffffffffffffffffffffffffff021916908373ffffffffffffffffffffffffffffffffffffffff1602179055508173ffffffffffffffffffffffffffffffffffffffff168173ffffffffffffffffffffffffffffffffffffffff167f8be0079c531659141344cd1fd0a4f28419497f9722a3daafe3b4186f6b6457e060405160405180910390a35050565b8173ffffffffffffffffffffffffffffffffffffffff168373ffffffffffffffffffffffffffffffffffffffff160361196d576040517f08c379a0000000000000000000000000000000000000000000000000000000008152600401611964906134de565b60405180910390fd5b80600660008573ffffffffffffffffffffffffffffffffffffffff1673ffffffffffffffffffffffffffffffffffffffff16815260200190815260200160002060008473ffffffffffffffffffffffffffffffffffffffff1673ffffffffffffffffffffffffffffffffffffffff16815260200190815260200160002060006101000a81548160ff0219169083151502179055508173ffffffffffffffffffffffffffffffffffffffff168373ffffffffffffffffffffffffffffffffffffffff167f17307eab39ab6107e8899845ad3d59bd9653f200f220920489ca2b5937696c3183604051611a5e91906123e5565b60405180910390a3505050565b611a76848484611230565b611a8284848484611c5e565b611ac1576040517f08c379a0000000000000000000000000000000000000000000000000000000008152600401611ab890613570565b60405180910390fd5b50505050565b60008073ffffffffffffffffffffffffffffffffffffffff16611ae983611780565b73ffffffffffffffffffffffffffffffffffffffff1614159050919050565b60007f01ffc9a7000000000000000000000000000000000000000000000000000000007bffffffffffffffffffffffffffffffffffffffffffffffffffffffff1916827bffffffffffffffffffffffffffffffffffffffffffffffffffffffff1916149050919050565b50505050565b50505050565b611b888282610ba4565b611bff57611b9581611de5565b611ba38360001c6020611e12565b604051602001611bb4929190613664565b6040516020818303038152906040526040517f08c379a0000000000000000000000000000000000000000000000000000000008152600401611bf69190612499565b60405180910390fd5b5050565b611c0d838361204e565b611c1a6000848484611c5e565b611c59576040517f08c379a0000000000000000000000000000000000000000000000000000000008152600401611c5090613570565b60405180910390fd5b505050565b6000611c7f8473ffffffffffffffffffffffffffffffffffffffff1661226b565b15611dd8578373ffffffffffffffffffffffffffffffffffffffff1663150b7a02611ca86110da565b8786866040518563ffffffff1660e01b8152600401611cca94939291906136f3565b6020604051808303816000875af1925050508015611d0657506040513d601f19601f82011682018060405250810190611d039190613754565b60015b611d88573d8060008114611d36576040519150601f19603f3d011682016040523d82523d6000602084013e611d3b565b606091505b506000815103611d80576040517f08c379a0000000000000000000000000000000000000000000000000000000008152600401611d7790613570565b60405180910390fd5b805181602001fd5b63150b7a0260e01b7bffffffffffffffffffffffffffffffffffffffffffffffffffffffff1916817bffffffffffffffffffffffffffffffffffffffffffffffffffffffff191614915050611ddd565b600190505b949350505050565b6060611e0b8273ffffffffffffffffffffffffffffffffffffffff16601460ff16611e12565b9050919050565b606060006002836002611e259190613781565b611e2f91906137db565b67ffffffffffffffff811115611e4857611e4761270b565b5b6040519080825280601f01601f191660200182016040528015611e7a5781602001600182028036833780820191505090505b5090507f300000000000000000000000000000000000000000000000000000000000000081600081518110611eb257611eb1613040565b5b60200101907effffffffffffffffffffffffffffffffffffffffffffffffffffffffffffff1916908160001a9053507f780000000000000000000000000000000000000000000000000000000000000081600181518110611f1657611f15613040565b5b60200101907effffffffffffffffffffffffffffffffffffffffffffffffffffffffffffff1916908160001a90535060006001846002611f569190613781565b611f6091906137db565b90505b6001811115612000577f3031323334353637383961626364656600000000000000000000000000000000600f861660108110611fa257611fa1613040565b5b1a60f81b828281518110611fb957611fb8613040565b5b60200101907effffffffffffffffffffffffffffffffffffffffffffffffffffffffffffff1916908160001a905350600485901c945080611ff990613831565b9050611f63565b5060008414612044576040517f08c379a000000000000000000000000000000000000000000000000000000000815260040161203b906138a6565b60405180910390fd5b8091505092915050565b600073ffffffffffffffffffffffffffffffffffffffff168273ffffffffffffffffffffffffffffffffffffffff16036120bd576040517f08c379a00000000000000000000000000000000000000000000000000000000081526004016120b490613912565b60405180910390fd5b6120c681611ac7565b15612106576040517f08c379a00000000000000000000000000000000000000000000000000000000081526004016120fd9061397e565b60405180910390fd5b612114600083836001611b72565b61211d81611ac7565b1561215d576040517f08c379a00000000000000000000000000000000000000000000000000000000081526004016121549061397e565b60405180910390fd5b6001600460008473ffffffffffffffffffffffffffffffffffffffff1673ffffffffffffffffffffffffffffffffffffffff16815260200190815260200160002060008282540192505081905550816003600083815260200190815260200160002060006101000a81548173ffffffffffffffffffffffffffffffffffffffff021916908373ffffffffffffffffffffffffffffffffffffffff160217905550808273ffffffffffffffffffffffffffffffffffffffff16600073ffffffffffffffffffffffffffffffffffffffff167fddf252ad1be2c89b69c2b068fc378daa952ba7f163c4a11628f55a4df523b3ef60405160405180910390a4612267600083836001611b78565b5050565b6000808273ffffffffffffffffffffffffffffffffffffffff163b119050919050565b82805461229a90612cb2565b90600052602060002090601f0160209004810192826122bc5760008555612303565b82601f106122d557805160ff1916838001178555612303565b82800160010185558215612303579182015b828111156123025782518255916020019190600101906122e7565b5b5090506123109190612314565b5090565b5b8082111561232d576000816000905550600101612315565b5090565b6000604051905090565b600080fd5b600080fd5b60007fffffffff0000000000000000000000000000000000000000000000000000000082169050919050565b61237a81612345565b811461238557600080fd5b50565b60008135905061239781612371565b92915050565b6000602082840312156123b3576123b261233b565b5b60006123c184828501612388565b91505092915050565b60008115159050919050565b6123df816123ca565b82525050565b60006020820190506123fa60008301846123d6565b92915050565b600081519050919050565b600082825260208201905092915050565b60005b8381101561243a57808201518184015260208101905061241f565b83811115612449576000848401525b50505050565b6000601f19601f8301169050919050565b600061246b82612400565b612475818561240b565b935061248581856020860161241c565b61248e8161244f565b840191505092915050565b600060208201905081810360008301526124b38184612460565b905092915050565b6000819050919050565b6124ce816124bb565b81146124d957600080fd5b50565b6000813590506124eb816124c5565b92915050565b6000602082840312156125075761250661233b565b5b6000612515848285016124dc565b91505092915050565b600073ffffffffffffffffffffffffffffffffffffffff82169050919050565b60006125498261251e565b9050919050565b6125598161253e565b82525050565b60006020820190506125746000830184612550565b92915050565b6125838161253e565b811461258e57600080fd5b50565b6000813590506125a08161257a565b92915050565b600080604083850312156125bd576125bc61233b565b5b60006125cb85828601612591565b92505060206125dc858286016124dc565b9150509250929050565b6000806000606084860312156125ff576125fe61233b565b5b600061260d86828701612591565b935050602061261e86828701612591565b925050604061262f868287016124dc565b9150509250925092565b6000819050919050565b61264c81612639565b811461265757600080fd5b50565b60008135905061266981612643565b92915050565b6000602082840312156126855761268461233b565b5b60006126938482850161265a565b91505092915050565b6126a581612639565b82525050565b60006020820190506126c0600083018461269c565b92915050565b600080604083850312156126dd576126dc61233b565b5b60006126eb8582860161265a565b92505060206126fc85828601612591565b9150509250929050565b600080fd5b7f4e487b7100000000000000000000000000000000000000000000000000000000600052604160045260246000fd5b6127438261244f565b810181811067ffffffffffffffff821117156127625761276161270b565b5b80604052505050565b6000612775612331565b9050612781828261273a565b919050565b600067ffffffffffffffff8211156127a1576127a061270b565b5b602082029050602081019050919050565b600080fd5b60006127ca6127c584612786565b61276b565b905080838252602082019050602084028301858111156127ed576127ec6127b2565b5b835b8181101561281657806128028882612591565b8452602084019350506020810190506127ef565b5050509392505050565b600082601f83011261283557612834612706565b5b81356128458482602086016127b7565b91505092915050565b600067ffffffffffffffff8211156128695761286861270b565b5b602082029050602081019050919050565b600080fd5b600067ffffffffffffffff82111561289a5761289961270b565b5b6128a38261244f565b9050602081019050919050565b82818337600083830152505050565b60006128d26128cd8461287f565b61276b565b9050828152602081018484840111156128ee576128ed61287a565b5b6128f98482856128b0565b509392505050565b600082601f83011261291657612915612706565b5b81356129268482602086016128bf565b91505092915050565b600061294261293d8461284e565b61276b565b90508083825260208201905060208402830185811115612965576129646127b2565b5b835b818110156129ac57803567ffffffffffffffff81111561298a57612989612706565b5b8086016129978982612901565b85526020850194505050602081019050612967565b5050509392505050565b600082601f8301126129cb576129ca612706565b5b81356129db84826020860161292f565b91505092915050565b600080604083850312156129fb576129fa61233b565b5b600083013567ffffffffffffffff811115612a1957612a18612340565b5b612a2585828601612820565b925050602083013567ffffffffffffffff811115612a4657612a45612340565b5b612a52858286016129b6565b9150509250929050565b600060208284031215612a7257612a7161233b565b5b6000612a8084828501612591565b91505092915050565b612a92816124bb565b82525050565b6000602082019050612aad6000830184612a89565b92915050565b612abc816123ca565b8114612ac757600080fd5b50565b600081359050612ad981612ab3565b92915050565b60008060408385031215612af657612af561233b565b5b6000612b0485828601612591565b9250506020612b1585828601612aca565b9150509250929050565b600067ffffffffffffffff821115612b3a57612b3961270b565b5b612b438261244f565b9050602081019050919050565b6000612b63612b5e84612b1f565b61276b565b905082815260208101848484011115612b7f57612b7e61287a565b5b612b8a8482856128b0565b509392505050565b600082601f830112612ba757612ba6612706565b5b8135612bb7848260208601612b50565b91505092915050565b60008060008060808587031215612bda57612bd961233b565b5b6000612be887828801612591565b9450506020612bf987828801612591565b9350506040612c0a878288016124dc565b925050606085013567ffffffffffffffff811115612c2b57612c2a612340565b5b612c3787828801612b92565b91505092959194509250565b60008060408385031215612c5a57612c5961233b565b5b6000612c6885828601612591565b9250506020612c7985828601612591565b9150509250929050565b7f4e487b7100000000000000000000000000000000000000000000000000000000600052602260045260246000fd5b60006002820490506001821680612cca57607f821691505b602082108103612cdd57612cdc612c83565b5b50919050565b7f4552433732313a20617070726f76616c20746f2063757272656e74206f776e6560008201527f7200000000000000000000000000000000000000000000000000000000000000602082015250565b6000612d3f60218361240b565b9150612d4a82612ce3565b604082019050919050565b60006020820190508181036000830152612d6e81612d32565b9050919050565b7f4552433732313a20617070726f76652063616c6c6572206973206e6f7420746f60008201527f6b656e206f776e6572206f7220617070726f76656420666f7220616c6c000000602082015250565b6000612dd1603d8361240b565b9150612ddc82612d75565b604082019050919050565b60006020820190508181036000830152612e0081612dc4565b9050919050565b7f4552433732313a2063616c6c6572206973206e6f7420746f6b656e206f776e6560008201527f72206f7220617070726f76656400000000000000000000000000000000000000602082015250565b6000612e63602d8361240b565b9150612e6e82612e07565b604082019050919050565b60006020820190508181036000830152612e9281612e56565b9050919050565b7f43616c6c6572206973206e6f742061204d494e54455200000000000000000000600082015250565b6000612ecf60168361240b565b9150612eda82612e99565b602082019050919050565b60006020820190508181036000830152612efe81612ec2565b9050919050565b7f417272617973206c656e677468206d69736d6174636800000000000000000000600082015250565b6000612f3b60168361240b565b9150612f4682612f05565b602082019050919050565b60006020820190508181036000830152612f6a81612f2e565b9050919050565b7f4e487b7100000000000000000000000000000000000000000000000000000000600052601160045260246000fd5b6000612fab826124bb565b9150612fb6836124bb565b925082821015612fc957612fc8612f71565b5b828203905092915050565b7f6e6f7420616c6c6f77656420746f206d696e74206e6f77000000000000000000600082015250565b600061300a60178361240b565b915061301582612fd4565b602082019050919050565b6000602082019050818103600083015261303981612ffd565b9050919050565b7f4e487b7100000000000000000000000000000000000000000000000000000000600052603260045260246000fd5b60006040820190506130846000830185612550565b6130916020830184612a89565b9392505050565b60006130a3826124bb565b91507fffffffffffffffffffffffffffffffffffffffffffffffffffffffffffffffff82036130d5576130d4612f71565b5b600182019050919050565b7f416363657373436f6e74726f6c3a2063616e206f6e6c792072656e6f756e636560008201527f20726f6c657320666f722073656c660000000000000000000000000000000000602082015250565b600061313c602f8361240b565b9150613147826130e0565b604082019050919050565b6000602082019050818103600083015261316b8161312f565b9050919050565b7f4552433732313a20696e76616c696420746f6b656e2049440000000000000000600082015250565b60006131a860188361240b565b91506131b382613172565b602082019050919050565b600060208201905081810360008301526131d78161319b565b9050919050565b7f4552433732313a2061646472657373207a65726f206973206e6f74206120766160008201527f6c6964206f776e65720000000000000000000000000000000000000000000000602082015250565b600061323a60298361240b565b9150613245826131de565b604082019050919050565b600060208201905081810360008301526132698161322d565b9050919050565b7f4f776e61626c653a206e6577206f776e657220697320746865207a65726f206160008201527f6464726573730000000000000000000000000000000000000000000000000000602082015250565b60006132cc60268361240b565b91506132d782613270565b604082019050919050565b600060208201905081810360008301526132fb816132bf565b9050919050565b7f4552433732313a207472616e736665722066726f6d20696e636f72726563742060008201527f6f776e6572000000000000000000000000000000000000000000000000000000602082015250565b600061335e60258361240b565b915061336982613302565b604082019050919050565b6000602082019050818103600083015261338d81613351565b9050919050565b7f4552433732313a207472616e7366657220746f20746865207a65726f2061646460008201527f7265737300000000000000000000000000000000000000000000000000000000602082015250565b60006133f060248361240b565b91506133fb82613394565b604082019050919050565b6000602082019050818103600083015261341f816133e3565b9050919050565b7f4f776e61626c653a2063616c6c6572206973206e6f7420746865206f776e6572600082015250565b600061345c60208361240b565b915061346782613426565b602082019050919050565b6000602082019050818103600083015261348b8161344f565b9050919050565b7f4552433732313a20617070726f766520746f2063616c6c657200000000000000600082015250565b60006134c860198361240b565b91506134d382613492565b602082019050919050565b600060208201905081810360008301526134f7816134bb565b9050919050565b7f4552433732313a207472616e7366657220746f206e6f6e20455243373231526560008201527f63656976657220696d706c656d656e7465720000000000000000000000000000602082015250565b600061355a60328361240b565b9150613565826134fe565b604082019050919050565b600060208201905081810360008301526135898161354d565b9050919050565b600081905092915050565b7f416363657373436f6e74726f6c3a206163636f756e7420000000000000000000600082015250565b60006135d1601783613590565b91506135dc8261359b565b601782019050919050565b60006135f282612400565b6135fc8185613590565b935061360c81856020860161241c565b80840191505092915050565b7f206973206d697373696e6720726f6c6520000000000000000000000000000000600082015250565b600061364e601183613590565b915061365982613618565b601182019050919050565b600061366f826135c4565b915061367b82856135e7565b915061368682613641565b915061369282846135e7565b91508190509392505050565b600081519050919050565b600082825260208201905092915050565b60006136c58261369e565b6136cf81856136a9565b93506136df81856020860161241c565b6136e88161244f565b840191505092915050565b60006080820190506137086000830187612550565b6137156020830186612550565b6137226040830185612a89565b818103606083015261373481846136ba565b905095945050505050565b60008151905061374e81612371565b92915050565b60006020828403121561376a5761376961233b565b5b60006137788482850161373f565b91505092915050565b600061378c826124bb565b9150613797836124bb565b9250817fffffffffffffffffffffffffffffffffffffffffffffffffffffffffffffffff04831182151516156137d0576137cf612f71565b5b828202905092915050565b60006137e6826124bb565b91506137f1836124bb565b9250827fffffffffffffffffffffffffffffffffffffffffffffffffffffffffffffffff0382111561382657613825612f71565b5b828201905092915050565b600061383c826124bb565b91506000820361384f5761384e612f71565b5b600182039050919050565b7f537472696e67733a20686578206c656e67746820696e73756666696369656e74600082015250565b600061389060208361240b565b915061389b8261385a565b602082019050919050565b600060208201905081810360008301526138bf81613883565b9050919050565b7f4552433732313a206d696e7420746f20746865207a65726f2061646472657373600082015250565b60006138fc60208361240b565b9150613907826138c6565b602082019050919050565b6000602082019050818103600083015261392b816138ef565b9050919050565b7f4552433732313a20746f6b656e20616c7265616479206d696e74656400000000600082015250565b6000613968601c8361240b565b915061397382613932565b602082019050919050565b600060208201905081810360008301526139978161395b565b905091905056fea26469706673582212200173d3e67702c20acf22bd5c9b3a69c5f98c19abc4b7e9c334b5684b7202eb4664736f6c634300080d0033",
  "immutableReferences": {},
  "source": "// SPDX-License-Identifier: MIT\npragma solidity ^0.8.0;\n\nimport \"./helper/ERC721MetaData.sol\";\n\nimport \"@openzeppelin/contracts/access/Ownable.sol\";\nimport \"@openzeppelin/contracts/access/AccessControl.sol\";\nimport \"@openzeppelin/contracts/utils/Counters.sol\";\n\ncontract CampaignNFT is Ownable, ERC721MetaData, AccessControl {\n    event nft_minted(address user_address_, uint256 tokenId_);\n\n    bytes32 public constant MINTER_ROLE = keccak256(\"MINTER_ROLE\");\n    using Counters for Counters.Counter;\n    Counters.Counter private _tokenIdCounter;\n    uint256 MINTING_INTERVAL = 300; //in seconds = 5 minutes\n    uint256 NO_OF_WINNER = 3;\n    uint256 last_minted_time;\n\n    constructor(\n        string memory name_,\n        string memory symbol_\n    ) ERC721MetaData(name_, symbol_) {\n        _setupRole(DEFAULT_ADMIN_ROLE, msg.sender);\n        _setupRole(MINTER_ROLE, msg.sender);\n        last_minted_time = block.timestamp - MINTING_INTERVAL;\n    }\n\n    function supportsInterface(\n        bytes4 interfaceId\n    ) public view virtual override(ERC721, AccessControl) returns (bool) {\n        return\n            ERC721.supportsInterface(interfaceId) ||\n            AccessControl.supportsInterface(interfaceId);\n    }\n\n    function mint_batch_nft(\n        address[] memory winners_,\n        string[] memory tokenURIs_\n    ) public returns (bool) {\n        require(hasRole(MINTER_ROLE, msg.sender), \"Caller is not a MINTER\");\n        require(winners_.length == tokenURIs_.length, \"Arrays length mismatch\");\n        require(winners_.length == NO_OF_WINNER, \"Arrays length mismatch\");\n        require(\n            block.timestamp - last_minted_time >= MINTING_INTERVAL,\n            \"not allowed to mint now\"\n        );\n\n        for (uint256 i = 0; i < NO_OF_WINNER; i++) {\n            uint256 newTokenId = _tokenIdCounter.current();\n            _safeMint(winners_[i], newTokenId);\n            _setTokenURI(newTokenId, tokenURIs_[i]);\n            _tokenIdCounter.increment();\n            emit nft_minted(winners_[i], newTokenId);\n        }\n\n        last_minted_time = block.timestamp;\n\n        return true;\n    }\n}\n",
  "sourcePath": "/home/bibhu/workspace/learning/Opika/assignment-2/contract/contracts/CampaignNFT.sol",
  "compiler": {
    "name": "solc",
    "version": "0.8.13+commit.abaa5c0e.Emscripten.clang"
  },
  "schemaVersion": "3.4.13",
  "updatedAt": "2023-06-27T09:54:57.709Z",
  "networkType": "ethereum",
  "devdoc": {
    "kind": "dev",
    "methods": {
      "approve(address,uint256)": {
        "details": "See {IERC721-approve}."
      },
      "balanceOf(address)": {
        "details": "See {IERC721-balanceOf}."
      },
      "getApproved(uint256)": {
        "details": "See {IERC721-getApproved}."
      },
      "getRoleAdmin(bytes32)": {
        "details": "Returns the admin role that controls `role`. See {grantRole} and {revokeRole}. To change a role's admin, use {_setRoleAdmin}."
      },
      "grantRole(bytes32,address)": {
        "details": "Grants `role` to `account`. If `account` had not been already granted `role`, emits a {RoleGranted} event. Requirements: - the caller must have ``role``'s admin role. May emit a {RoleGranted} event."
      },
      "hasRole(bytes32,address)": {
        "details": "Returns `true` if `account` has been granted `role`."
      },
      "isApprovedForAll(address,address)": {
        "details": "See {IERC721-isApprovedForAll}."
      },
      "name()": {
        "details": "See {IERC721Metadata-name}."
      },
      "owner()": {
        "details": "Returns the address of the current owner."
      },
      "ownerOf(uint256)": {
        "details": "See {IERC721-ownerOf}."
      },
      "renounceOwnership()": {
        "details": "Leaves the contract without owner. It will not be possible to call `onlyOwner` functions. Can only be called by the current owner. NOTE: Renouncing ownership will leave the contract without an owner, thereby disabling any functionality that is only available to the owner."
      },
      "renounceRole(bytes32,address)": {
        "details": "Revokes `role` from the calling account. Roles are often managed via {grantRole} and {revokeRole}: this function's purpose is to provide a mechanism for accounts to lose their privileges if they are compromised (such as when a trusted device is misplaced). If the calling account had been revoked `role`, emits a {RoleRevoked} event. Requirements: - the caller must be `account`. May emit a {RoleRevoked} event."
      },
      "revokeRole(bytes32,address)": {
        "details": "Revokes `role` from `account`. If `account` had been granted `role`, emits a {RoleRevoked} event. Requirements: - the caller must have ``role``'s admin role. May emit a {RoleRevoked} event."
      },
      "safeTransferFrom(address,address,uint256)": {
        "details": "See {IERC721-safeTransferFrom}."
      },
      "safeTransferFrom(address,address,uint256,bytes)": {
        "details": "See {IERC721-safeTransferFrom}."
      },
      "setApprovalForAll(address,bool)": {
        "details": "See {IERC721-setApprovalForAll}."
      },
      "symbol()": {
        "details": "See {IERC721Metadata-symbol}."
      },
      "transferFrom(address,address,uint256)": {
        "details": "See {IERC721-transferFrom}."
      },
      "transferOwnership(address)": {
        "details": "Transfers ownership of the contract to a new account (`newOwner`). Can only be called by the current owner."
      }
    },
    "version": 1
  },
  "userdoc": {
    "kind": "user",
    "methods": {},
    "version": 1
  }
}